:100000000C94C7000C94E6000C94E6000C94E600F7
:100010000C94E6000C94E6000C94E6000C94E600C8
:100020000C94E6000C94E6000C94E6000C94E600B8
:100030000C94E6000C94E6000C94E6000C94E600A8
:100040000C94E6000C94E6000C9409010C94E60074
:100050000C94E6000C94E6000C94E6000C94E60088
:100060000C94E6000C94E6000C94E6000C94E60078
:100070000C94E6000C94E6000C94E6000C94E60068
:100080000C94E6000C94E6000C94E6006E616E00A1
:10009000696E660000407A10F35A00A0724E18098B
:1000A0000010A5D4E80000E87648170000E40B54DF
:1000B000020000CA9A3B000000E1F50500008096AE
:1000C0009800000040420F000000A08601000000E0
:1000D000102700000000E80300000000640000009A
:1000E00000000A00000000000100000000002C7663
:1000F000D888DC674F0823DFC1DFAE59E1B1B7967E
:10010000E5E3E453C63AE651997696E8E6C28426DA
:10011000EB898C9B62ED407C6FFCEFBC9C9F40F2B6
:10012000BAA56FA5F490055A2AF75C936B6CF96732
:100130006DC11BFCE0E40D47FEF520E6B500D0EDF7
:10014000902E0300943577050080841E080000205F
:100150004E0A000000C80C333333330F986E1283FD
:100160001141EF8D2114893BE65516CFFEE6DB18D1
:10017000D1844B381BF77C1D901DA4BBE424203296
:1001800084725E228100C9F124ECA1E53D2711248F
:100190001FBECFEFD0E1DEBFCDBF13E0A0E0B1E0E6
:1001A000E0E2FFE000E00BBF02C007900D92A43B2D
:1001B000B107D9F713E0A4EBB3E001C01D92A83B4F
:1001C000B107E1F70E94ED010C948E070C9400003A
:1001D000660F660F660F8295807F862B47954427B2
:1001E0004795482B4AB986E080939500109290007D
:1001F00083E389B908955D9BFECF8CB90895FC0116
:1002000004C05D9BFECF8CB9319680818823C9F7ED
:1002100008951F920F920FB60F920BB60F921124F2
:100220001F932F933F934F935F936F937F938F937E
:100230009F93AF93BF93EF93FF931CB1133229F4B5
:100240001092B4031092B60321C01A32F9F48091CF
:10025000B6038823D9F481E08093B603809101012D
:10026000873739F0883751F0833759F480E090E0D0
:100270000AC081E090E06091030106C082E090E056
:1002800002C083E090E06FEF0E944E028091B603BF
:10029000882351F48091B403E82FF0E0E050FF4F41
:1002A00010838F5F8093B403FF91EF91BF91AF9163
:1002B0009F918F917F916F915F914F913F912F917E
:1002C0001F910F900BBE0F900FBE0F901F901895AF
:1002D0001092710080E2809370000895982F84EA54
:1002E000809374008091740087FFFCCF809171002F
:1002F000887F883021F0803111F081E0089590935B
:10030000730084E8809374008091740087FFFCCFB1
:1003100090917100987F983111F480E0089580E009
:10032000903409F081E00895982F44EA34E824E9F4
:10033000409374008091740087FFFCCF809171001E
:10034000887F883011F0803199F790937300309353
:1003500074008091740087FFFCCF80917100887FCA
:10036000803211F0883539F4209374008091740044
:1003700084FDFCCFDDCF08950E946E01089584E9CD
:10038000809374008091740084FDFCCF0895809365
:10039000730084E8809374008091740087FFFCCF21
:1003A0008091710090E0887F883209F091E0892F78
:1003B000089584EC809374008091740087FFFCCFD3
:1003C00080917300089584E8809374008091740094
:1003D00087FFFCCF80917300089581E090E061E099
:1003E00070E041E050E00E94E8000E9468018AEF5E
:1003F00091E00E94FF008DEF91E00E94FF0088E2F3
:1004000092E00E94FF0083E592E00E94FF008DEFE2
:1004100091E00E94FF0084E792E00E94FF0084E8E0
:1004200092E00E94FF0085EC92E00E94FF0086E0CF
:1004300093E00E94FF0087E493E00E94FF0078941D
:10044000FFCF80E197E228EC30E0F9013197F1F736
:100450000197D9F78DE793E00E94FF0080E00895AF
:1004600080E197E228EC30E0F9013197F1F701974C
:10047000D9F781E893E00E94FF0080E0089580E1D1
:1004800097E228EC30E0F9013197F1F70197D9F7BD
:1004900085E893E00E94FF0080E008958130910597
:1004A00049F08130910518F0029759F407C00E9475
:1004B0003F020895862F0E94300208950E94210273
:1004C000089589E893E00E94FF0008952F923F92DB
:1004D0004F925F926F927F928F929F92AF92BF9254
:1004E000CF92DF92EF92FF920F931F93DF93CF9300
:1004F000CDB7DEB761970FB6F894DEBF0FBECDBFA4
:100500003C017F876E876A01FC0117821682838116
:1005100081FD03C06FEF7FEF6FC39E012F5F3F4FE1
:10052000398B288BF3012381EE85FF8523FD85918F
:1005300023FF8191FF87EE87882309F45AC3853210
:1005400051F4EE85FF8523FD859123FF8191FF877F
:10055000EE87853229F490E0B3010E940407E2CFD0
:10056000982F10E0882499241032B0F49B3269F05F
:100570009C3228F4903251F0933271F40BC09D32CA
:1005800039F0903349F4116028C01260146025C01E
:10059000186023C0106121C017FD2AC0892F805325
:1005A0008A3078F416FF06C0FAE09F9E902C112442
:1005B000980E13C03AE0839E802C1124880E10629E
:1005C0000CC09E3221F416FD14C3106406C09C3684
:1005D00011F4106802C0983659F4EE85FF8523FDAA
:1005E000959123FF9191FF87EE87992309F0BCCF66
:1005F000892F8554833020F4812F8061905E07C05D
:10060000892F8556833008F09FC1812F8F7E86FD0C
:1006100002C076E0972E6FE3F62EF822953619F495
:10062000F0E4FF2A07C0963619F420E8F22A02C047
:1006300091109A94F7FE0AC03BE3391518F45CE375
:10064000B52E02C0B92CB39427E009C047E0491584
:1006500020F4BB2447E0942EF7CF292DBB24C601FC
:1006600004969D878C87F6016081718182819381D8
:10067000AE014F5F5F4F0B2D0E9416066C01098182
:10068000202E332400FF04C003FD02C01DE209C078
:10069000F1FE02C01BE205C0F2FC02C010E001C086
:1006A00010E2C1018C709070892BB9F1112311F403
:1006B00083E001C084E0881510F088240AC0881AFD
:1006C000F3FC07C080E290E0B3010E9404078A9423
:1006D000C9F7112329F0812F90E0B3010E9404078C
:1006E00023FE03C00CE810E00EC000E910E00BC0D0
:1006F000E114F10409F0805290E0B3010E94040774
:100700000F5F1F4F05C0EF2CFF24F0E1EF22FF2405
:10071000F8018491882361F714C1F7FE12C0BC0C64
:1007200024FE04C08A81813309F4BA941B141CF09E
:10073000BB24B3942DC0F8E0FB1550F538E0B32E80
:1007400027C0F6FC25C0892D90E08C159D054CF046
:100750002CEFC2162FEFD20624F030E8F32A01C0A6
:100760009A94992049F0E2E0F0E0EC0FFD1FE90DCA
:10077000F11D80818033A1F3F7FE0AC0B92CB39438
:10078000892D90E0C816D90614F0992401C09C1850
:10079000F7FC03C025E030E009C01C141D041CF068
:1007A00021E030E003C096012F5F3F4F112311F08D
:1007B0002F5F3F4F992029F0892D90E00196280F57
:1007C000391F882D90E02817390714F0882401C0BC
:1007D000821A4F2C5524C20189709070892B39F0F0
:1007E00008C080E290E0B3010E9404078A94882048
:1007F000C1F7112329F0812F90E0B3010E94040773
:1008000043FE07C008C080E390E0B3010E940407E4
:100810008A948820C1F7F7FE46C08601D7FE02C041
:1008200000E010E076010894E11CF11CE01AF10AE6
:1008300041E050E04C0F5D1FE40EF51E26014B1801
:100840005108892D90E0AA24BB24A81AB90A5FEFA9
:100850000F3F150729F48EE290E0B3010E940407D0
:10086000C016D10634F0401651061CF4F701808101
:1008700001C080E3015010400894E11CF11C0A15EE
:100880001B052CF090E0B3010E940407E0CF0C158B
:100890001D0539F49A81963318F4953311F424FE2A
:1008A00081E390E04BC08A81813309F00F7E90E0B4
:1008B000B3010E9404079920A1F08EE290E0B301F9
:1008C0000E94040712E0E1E0F0E0EC0FFD1FE10FF1
:1008D000F11D1F5F808190E0B3010E9404079A948C
:1008E00091F744FC03C085E690E002C085E490E007
:1008F000B3010E940407D7FC05C0C114D10441F420
:1009000004FF06C0D094C194D108D3948DE201C0F5
:100910008BE290E0B3010E94040780E305C08F5F83
:1009200026EF3FEFC20ED31E3AE0C316D104BCF748
:1009300090E0B3010E940407C601C096B3010E9473
:100940000407CC84DD8452C1933631F0933799F09B
:10095000933509F059C023C0F601808189835E0177
:100960000894A11CB11C22E030E0C20ED31E21E08D
:10097000E22EF12C12C0F601A080B18016FD03C05A
:100980006FEF7FEF02C0692D70E022E030E0C20E11
:10099000D31EC5010E94F9067C011F7713C0F60122
:1009A000A080B18016FD03C06FEF7FEF02C0692DFC
:1009B00070E022E030E0C20ED31EC5010E94EE06B8
:1009C0007C01106813FF07C01BC080E290E0B301F8
:1009D0000E9404078A94882D90E0E816F906A8F38F
:1009E0000FC0F50117FD859117FF81915F0190E020
:1009F000B3010E94040781108A940894E108F10869
:100A0000E114F10471F7F2C0943611F0993689F5CA
:100A100017FF08C0F601208131814281538184E0B3
:100A200090E00AC0F601808191819C01442737FD46
:100A30004095542F82E090E0C80ED91E9FE6F92E13
:100A4000F12257FF09C050954095309521953F4FB1
:100A50004F4F5F4F90E8F92ACA01B901AE014F5FCD
:100A60005F4F2AE030E00E943007E82EE889EE1A56
:100A700041C0953721F41F7E2AE030E01CC0197F69
:100A80009F3661F0903720F4983509F0B2C00FC05E
:100A9000903739F0983709F0ACC004C028E030E056
:100AA0000AC0106114FD146020E130E004C014FDA0
:100AB000166020E132E017FF08C0F6016081718105
:100AC0008281938144E050E008C0F60180819181E9
:100AD000BC0180E090E042E050E0C40ED51EAE01C3
:100AE0004F5F5F4F0E943007E82E5889E51A8FE765
:100AF000F82EF122F6FE0BC08EEFF822E91438F43E
:100B0000F4FE07C0F2FC05C09FEEF92202C01E2DC4
:100B100001C0192DF4FE0DC0FE01EE0DF11D808106
:100B2000803319F4E9EEFE2208C01F5FF2FE05C013
:100B300003C08F2D867809F01F5F0F2DF3FC14C0C2
:100B4000F0FE0FC0181510F09E2C0BC09E2C980CB8
:100B5000911A182D06C080E290E0B3010E940407AC
:100B60001F5F1815C0F304C0181510F4811A01C0D6
:100B7000882404FF0FC080E390E0B3010E940407C3
:100B800002FF1DC001FD03C088E790E00EC088E5AC
:100B900090E00BC0802F867891F001FF02C08BE2BD
:100BA00001C080E2F7FC8DE290E0B3010E940407EF
:100BB00006C080E390E0B3010E9404079A94E91410
:100BC000C0F3EA94E1E0F0E0EC0FFD1FEE0DF11D43
:100BD000808190E0B3010E940407EE2091F706C0E7
:100BE00080E290E0B3010E9404078A948820C1F754
:100BF00099CCF30166817781CB0161960FB6F894A9
:100C0000DEBF0FBECDBFCF91DF911F910F91FF903F
:100C1000EF90DF90CF90BF90AF909F908F907F909C
:100C20006F905F904F903F902F900895283008F07C
:100C300027E03327DA01990F311D87FD9160009677
:100C40006105710539F432602E5F3D9330E32A95DA
:100C5000E1F708959F3F30F080387105610509F094
:100C60003C5F3C5F3D93913008F08068911DDF93BD
:100C7000CF931F930F93FF92EF92192F987F969522
:100C8000E92F96959695E90FFF27E251FF4F992797
:100C90003327EE24FF24A701E70105900894079469
:100CA00028F4360FE71EF81E491F511D660F771FE7
:100CB000881F991F0694A1F70590079428F4E70E62
:100CC000F81E491F561FC11D770F881F991F661FE9
:100CD0000694A1F70590079428F4F80E491F561FB3
:100CE000C71FD11D880F991F661F771F0694A1F794
:100CF0000590079420F4490F561FC71FD81F990F5E
:100D0000661F771F881F0694A9F7849110951770A6
:100D100041F0D695C79557954795F794E7941A955E
:100D2000C1F7E4E9F0E0689415901591359165916B
:100D3000959105907FE27395E118F10A430B560BEC
:100D4000C90BD009C0F7E10CF11E431F561FC91F84
:100D5000D01D7EF4703311F48A95E6CFE8940150EB
:100D600030F0080F0AF40027021708F4202F23950B
:100D7000022F7A3328F079E37D932A95E9F710C0A2
:100D80007D932A9589F606949795679537951795DB
:100D90001794E118F10A430B560BC90BD00998F0D0
:100DA00023957E9173957A3308F070E37C9320133A
:100DB000B8F77E9170617D9330F0839571E37D93F8
:100DC00070E32A95E1F71124EF90FF900F911F91A6
:100DD000CF91DF91992787FD90950895FC010590AB
:100DE000615070400110D8F7809590958E0F9F1F2D
:100DF0000895FC016150704001900110D8F7809572
:100E000090958E0F9F1F08950F931F93CF93DF939D
:100E10008C01EB018B8181FF1BC082FF0DC02E81F5
:100E20003F818C819D812817390764F4E881F9811D
:100E30000193F983E88306C0E885F985802F099539
:100E4000892B31F48E819F8101969F838E8302C00E
:100E50000FEF1FEFC801DF91CF911F910F91089500
:100E6000FA01AA27283051F1203181F1E8946F93DB
:100E70006E7F6E5F7F4F8F4F9F4FAF4FB1E03ED081
:100E8000B4E03CD0670F781F891F9A1FA11D680F1F
:100E9000791F8A1F911DA11D6A0F711D811D911D52
:100EA000A11D20D009F468943F912AE0269F1124C7
:100EB0003019305D3193DEF6CF010895462F47702B
:100EC000405D4193B3E00FD0C9F7F6CF462F4F7086
:100ED000405D4A3318F0495D31FD4052419302D0E4
:100EE000A9F7EACFB4E0A69597958795779567958A
:100EF000BA95C9F700976105710508959B01AC018A
:100F00000A2E06945795479537952795BA95C9F7B0
:100F1000620F731F841F951FA01D0895F894FFCFC3
:100F200000000000000000000000000000000000C1
:100F300000000000000000000000000000000000B1
:100F400000000000000000000000000000000000A1
:100F50000000000000000000000000000000000091
:100F60000000000000000000000000000000000081
:100F70000000000000000000000000000000000071
:100F80000000000000000000000000000000000061
:100F90000000000000000000000000000000000051
:100FA0000000000000000000000000000000000041
:100FB0000000000000000000000000000000000031
:100FC0000000000000000000000000000000000021
:100FD0000000000000000000000000000000000011
:100FE0000000000000000000000000000000000001
:100FF00000000000000000000000000000000000F1
:1010000000000000000000000000000000000000E0
:10101000000000000000000000000A0D002D2D2D32
:101020002D2D2D2D2D2D2D2D2D2D2D2D2D2D2D2DF0
:101030002D2D2D2D2D2D2D2D2D2D2D2D2D2D2D2DE0
:101040002D2D2D2D2D0A0D0048444D495F5247424C
:101050005F4C56445320426F6172642045444944BA
:1010600020446174612070726F6772616D6D65728A
:101070000A0D002863292041726D696E2053636850
:101080006C6567656C2C2033302E30332E32303156
:10109000340D0A00436F6D6D616E642068656C707D
:1010A0003A0A0D0023732A2020202D20696E6469DE
:1010B0006361746573207468652073746172742051
:1010C0006F6620612077726974652070726F636546
:1010D00073732020202D2072657475726E73202327
:1010E000312A0A0D0023642C582A202D207772699A
:1010F0007465732061206279746520582020202057
:1011000020202020202020202020202020202020DF
:101110002020202020202D2072657475726E73208F
:1011200023322A0A0D0023782A2020202D20696EE0
:10113000646963617465732074686520656E6420FA
:101140006F6620612064617461207472616E7366E1
:10115000657220202020202D2072657475726E73B8
:101160002023332A0A0D004E6F74653A20666F7291
:10117000206120636F6D706C65746520454449443F
:1011800020646174617365742077726974652031BD
:1011900032382062797465730A0D0A0D0023332AF0
:1011A0000023322A0023312A00434D445F45525226
:1011B0004F523A20706C656173652073656E6420D0
:1011C000636F727265637420636F6D6D616E6473BB
:0411D0000A0D000004
:00000001FF
