:0300000002016595
:0C016500787FE4F6D8FD7581070200B237
:07012D00900000E0F4FFF078
:10013400900001EFF07F057E00120187900001E03E
:06014400FF7E0002017CB9
:05014A00900000E0FF41
:10014F00900001EFF07F047E00120187900001E024
:06015F00FF7E0002017C9E
:1000B200E4900000F012010912012D7F007EF81277
:1000C200000312014A12012D7FE07E071200031283
:1000D200014A12012D7F1F7E0012000312014A8085
:0100E200D746
:0B0171008FA0AF058F80C2B6D2B6226F
:05019200D2B50201716D
:0B017C00AD07AC06D2B5ECFF0201712C
:0B018700AD07AC06C2B5ECFF02017131
:10005F00900004EEF0A3EFF08D828C837F027E0080
:10006F00120187AE83AF8212017C7F037E001201E3
:10007F0087900004E0FEA3E0FF12017C7F067E0064
:10008F0012018790000AE0FEA3E0FF12017C7F07B8
:10009F007E00120187AE02AF0312017C7F0F7E003C
:0300AF00020187C4
:10010900D2B7D2B6C2927F017E001200E3D2927FAB
:10011900017E001200E3C2907F017E001201877FF9
:040129001002017C43
:02000300AC0649
:10000500EC900001F0A90790000A7401F0A374DFD9
:10001500F07B1F7A03E4FDFCFFFE12005FE4900015
:1000250002F0A3F0E4FBFA900001E0FFAD0112013C
:10003500920BBB00010ABA01EEBBE0EB900003E0B6
:1000450004F07006900002E004F0C3900003E09411
:0900550020900002E0940340CB6E
:01005E00227F
:1000E300E4FDFCC3ED9FEE6480F8EC64809850154A
:1000F300E4FBFA0BBB00010ABA13F8BB88F50DBD8C
:0501030000010C80DE8C
:0101080022D4
:00000001FF
