:0300000002012BCF
:0C012B00787FE4F6D8FD7581070200B271
:1000B2001201077F007EF81200037FE87E03120020
:1000C200E17FE07E071200037FE87E031200E17FFA
:0F00D2001F7E001200037FE87E031200E180D43E
:0B0137008FA0AF058F80C2B6D2B622A9
:05015800D2B5020137E1
:0B014200AD07AC06D2B5ECFF020137A0
:0B014D00AD07AC06C2B5ECFF020137A5
:10005F00900003EEF0A3EFF08D828C837F027E0081
:10006F0012014DAE83AF821201427F037E00120157
:10007F004D900003E0FEA3E0FF1201427F067E00D9
:10008F0012014D900009E0FEA3E0FF1201427F072D
:10009F007E0012014DAE02AF031201427F0F7E00B0
:0300AF0002014DFE
:10010700D2B7D2B6C2927F017E001200E1D2927FAF
:10011700017E001200E1C2907F017E0012014D7F37
:04012700100201427F
:02000300AC0649
:10000500EC900000F0A9079000097401F0A374DFDB
:10001500F07B1F7A03E4FDFCFFFE12005FE4900015
:1000250001F0A3F0E4FBFA900000E0FFAD0112013E
:10003500580BBB00010ABA01EEBBE0EB900002E0F1
:1000450004F07006900001E004F0C3900002E09413
:0900550020900001E0940340CB6F
:01005E00227F
:1000E100E4FDFCC3ED9FEE6480F8EC64809850154C
:1000F100E4FBFA0BBB00010ABA13F8BB88F50DBD8E
:0501010000010C80DE8E
:0101060022D6
:00000001FF
