:030000000210A348
:0C10A300787FE4F6D8FD7581070210EAA2
:1013E500120CFC7F007EF81212377FB87E0B1214A8
:1013F500147FE07E071212377FB87E0B1214147F1C
:0F1405001F7E001212377FB87E0B12141480D195
:02147700200053
:1013B400420030031F42002C03A0420036002E429C
:1013C400003B000F41003A3042003401DF42002E5E
:1013D400020D42003F00104200320008410041105B
:0B145C008FA0AF058F80C2B6D2B62271
:05147200D2B502145C7C
:09143A00A3E0FF121443A3E0FF3C
:0B144300AD07AC06D2B5ECFF02145C54
:0B146700AD07AC06C2B5ECFF02145C40
:0E144E00AB05AA04121467AE02AF03021443EA
:10137A00900024EEF0A3EFF0A3ECF0A3EDF07F2AA7
:10138A007E0012146790002412143BEAFF121443E1
:10139A00AF037E001214437F2B12146712143A9083
:0A13AA00002A12143B7F2C02146786
:100CFC00D29020905BE4FDFCFFFE12144E7BFF7A39
:100D0C00147977E4FDFCFFFE121002900004120C23
:100D1C00CB00000000E4900008F0FDFCFFFE120E7A
:100D2C0077E4900006F0FBFAFDFCFFFE1211B5E42F
:100D3C00FDFCFFFE1212E5E4900006F0A3F0FBFAB6
:100D4C00FDFCFFFE120F58E4FBFDFCFFFE1205F349
:100D5C00D2927F057E00121414C2927F057E00127F
:100D6C001414D292D290D2B7D2B67F057E00121450
:100D7C0014C2907FE27E001214677F231214437F0B
:100D8C00021214437F041214437FE01214677F0194
:100D9C001214437F011214147FE07E001214677F3B
:100DAC00031214437F051214147F017E0012146782
:100DBC007F051214147FE67E001214677F03121451
:100DCC00437FFF1214437FFF1214437FB01214674A
:100DDC007F27121443E4FF12144390003012143B8B
:100DEC0090003412143BE4FF1214437FB4121467C6
:100DFC0090002C12143B90003612143B90003AE0F9
:100E0C00FF12144312143AE4FF1214437FB6121467
:100E1C006790002E12143B90003FE0FF1214431217
:100E2C00143A90003212143B7FBA1214677F0F12DF
:100E3C0014437FB81214677F071214437F011214F6
:100E4C00437F36121467E4FF1214437FF0121467C9
:100E5C007F031214437F051214147F297E00121491
:0B0E6C00677FD01214677F0D02144353
:02123700AC0603
:10123900EC900007F0A90790002A7401F0A374DF6D
:10124900F07B1F7A03E4FDFCFFFE12137AE49000A1
:1012590008F0A3F0E4FBFA900007E0FFAD011214D7
:10126900720BBB00010ABA01EEBBE0EB900009E08A
:1012790004F07006900008E004F0C3900009E094BF
:0912890020900008E0940340CB22
:011292002239
:10129300900004E0FEA3E0FF900001E02FFF900028
:1012A30000E03E900006FEE0FCA3E0FD900003E0BA
:0812B3002DFD900002E03CFC5F
:1012BB00AB07AA068D828C83C006C007AE83AF82B4
:1012CB0090002AEEF0A3EFF0D007D00612137A901D
:0A12DB000038E0FEA3E0FF02144318
:1012E500AB07AA068D828C83EB24FFFFEA34FFFE51
:1012F500C006C007E58224FFFDE58334FFFCEB242F
:1013050001FBE43AFAAE83AF82EF2401FFE43E909D
:101315000006F0A3EFF0900038E0FFA3E09000088E
:0C132500CFF0A3EFF0D007D00602112F8C
:10112F00900000EEF0A3EFF0A3ECF0A3EDF0A3EA34
:04113F00F0A3EBF03E
:10114300C007A3E0FFA3E090002ACFF0A3EFF0D005
:101153000712137A900002E0FFA3E090000ACFF099
:10116300A3EFF0900006E0FEA3E0FFD390000BE0B6
:101173009F90000AE09E5039900000E0FEA3E0FB40
:10118300AA06C3900005E09B900004E09A401290E9
:101193000008E0FEA3E0FF1214430BBB00010A802A
:1011A300E190000BE004F070BA90000AE004F080D4
:0111B300B289
:0111B4002218
:0E07EA00900008EEF0A3EFF0A3ECF0A3EDF00A
:1007F800E4900012F0A3F0A3F0A3F0900008E0FE4C
:10080800A3E0FFC3EB9FFFEA9E900016F0A3EFF072
:1008180090000AE0FAA3E0FBC390000FE09BFE9073
:10082800000EE09A900018F0A3CEF0900008E0FFC8
:10083800A3E0900020CFF0A3EFF0A3EAF0A3EBF041
:10084800900016E0FEA3E0FFD39400EE648094804D
:10085800400A90001CE4F0A304F08021EF4E7008D9
:1008680090001CF0A3F0801574FF90001CF0A3F01A
:10087800C3E49FFFE49E900016F0A3EFF0900018E9
:10088800E0FEA3E0FFD39400EE64809480400A90D9
:10089800001EE4F0A304F08021EF4E700890001EC3
:1008A800F0A3F0801574FF90001EF0A3F0C3E49F3E
:1008B800FFE49E900018F0A3EFF0900018E0FEA36C
:1008C800E0FF900016E0FCA3E0FDD39FEE6480F803
:1008D800EC64809890001A4007ECF0A3EDF08005D6
:1008E800EEF0A3EFF0E4900010F0A3F090001BE00E
:1008F8002401FF90001AE03400FED3900011E09F1D
:10090800900010E09E40030209D4900020E0FEA36E
:10091800E0FFA3E0FCA3E0FD1212BB900016E0FE8E
:10092800A3E0FF900013E02FF0900012E03EF0905B
:100938000018E0FEA3E0FF900015E02FF0900014EF
:10094800E03EF090001AE0FEA3E0FF900012E0FC09
:10095800A3E0FDD39FEE6480F8EC6480984020ED1E
:100968009FFFEC9E900012F0A3EFF090001CE0FEB9
:10097800A3E0FF900021E02FF0900020E03EF090EF
:10098800001AE0FEA3E0FF900014E0FCA3E0FDD312
:100998009FEE6480F8EC6480984020ED9FFFEC9E09
:1009A800900014F0A3EFF090001EE0FEA3E0FF908B
:1009B8000023E02FF0900022E03EF0900011E004C8
:0C09C800F07006900010E004F00208F44B
:0109D4002200
:100F5800900004EAF0A3EBF0900000EEF0A3EFF0AD
:100F6800A3ECF0A3EDF0C007A3E0FAA3E0FB900028
:100F780002E0FFA3E090000ECFF0A3EFF0D007123D
:100F880007EA900000E0FAA3E0FBFFAE02C007A367
:100F9800E0FCA3E0FD900006E0FFA3E090000ECF88
:100FA800F0A3EFF0D0071207EA900006E0FCA3E0F8
:100FB800FD900004E0FAA3E0FBA3E0FFA3E09000AB
:100FC8000ECFF0A3EFF0900000E0FEA3E0FF1207C1
:100FD800EA900004E0FAA3E0FBFFAE02C00790002D
:100FE80002E0FCA3E0FD900006E0FFA3E090000E05
:0A0FF800CFF0A3EFF0D0070207EAE4
:0E05F300900000EEF0A3EFF0A3ECF0A3EDF00B
:10060100E4A3F0A3F0EBFF7E00A3EEF0A3EFF0254F
:10061100E0FFEE33FEC374039F900009F0E49E9067
:100621000008F0900006E0FEA3E0FFD3900005E093
:100631009FEE6480F8900004E06480984003020714
:10064100E9C3900001E09FFF900000E09EFE900052
:1006510004E0FCA3E0FDC3900003E09DFD900002D7
:10066100E09CFC1212BB900006E0FEA3E0FF9000AC
:1006710001E02FFF900000E03EFE900004E0FCA3AB
:10068100E0FDC3900003E09DFD900002E09CFC12A0
:1006910012BB900004E0FEA3E0FFC3900001E09FC5
:1006A100FF900000E09E1212A6900006E0FEA3E07B
:1006B100FFC3900001E09FFF900000E09EFE9000CC
:1006C10004E0FCA3E0FDC3900003E09DFD90000267
:1006D100E09CFC1212BB900004E0FEA3E0FFC3907B
:1006E1000001E09FFF900000E09EFE900006E0FC0C
:1006F100A3E0FDC3900003E09DFD900002E09CFC9F
:100701001212BB900006E0FEA3E0FF900001E02F73
:10071100FF900000E03E9000041212A9900004E056
:10072100FEA3E0FF900001E02FFF900000E03EFEFD
:10073100900006E0FCA3E0FDC3900003E09DFD9066
:100741000002E09CFC1212BB121293900006E0FE24
:10075100A3E0FFC3900001E09FFF900000E09EFE38
:100761009000041212AA900005E004F070069000B7
:1007710004E004F0C3900008E06480948050249069
:100781000004E0FEA3E07802C333CE33CED8F924CF
:1007910006FFE43EFE900009E02FF0900008E03EE5
:1007A100F0803F900006E0FEA3E0FFC3900005E06B
:1007B1009FFF900004E09EFEEF7802C333CE33CE5C
:1007C100D8F9240AFFE43EFE900009E02FF09000E2
:1007D10008E03EF0900007E024FFF0900006E034CE
:0807E100FFF01212930206243E
:0107E90022ED
:0609D500FBE4900011F0AC
:1009DB0090000CEEF0A3EFF0A3ECF0A3EDF0A3EB83
:0109EB00F01B
:1009EC0090000CE0FEA3E0FF900014EEF0A3EFF0FB
:1009FC00900038E0FDA3E0900016CDF0A3EDF0D30D
:100A0C00EF9410EE94034003020B7290000EE0FC86
:100A1C00A3E0FD94D0EC94014003020B7290001003
:100A2C00E024E0F090000CE0FAA3E0FFAE02C00678
:100A3C00C0072407FBE43AFAA3E0FEA3E0240FFF6F
:100A4C00E43E90002AF0A3EFF0D007D00612137A00
:100A5C00900011E06003020AFAF9900010E075F0C2
:100A6C0010A4FFE97C002FFFEC35F0FE74032FF58A
:100A7C008274003EF583E493900012F0E4A3F090AE
:100A8C000012E030E005900016800390003DE0FF7E
:100A9C00A3E0900038CFF0A3EFF0900038E0FEA375
:100AAC00E0FF121443900012E0C313F090000DE02D
:100ABC0004F0700690000CE004F0900013E004F0D9
:100ACC00E0C3940840B9900014E0FFA3E090000C40
:100ADC00CFF0A3EFF090000FE004F0700690000E42
:100AEC00E004F009E964106003020A668069E4F925
:100AFC00900010E075F010A4FFE97C002FFFEC359E
:100B0C00F0FE74032FF58274003EF583E49390009D
:100B1C0012F0E4A3F0900013E0FFC394085033905C
:100B2C000012E030E01F90000DE02FFF90000CE071
:100B3C003400FEE9FD90000FE02DFD90000EE03436
:100B4C0000FC1212BB900012E0C313F0A3E004F0FF
:100B5C0080C309E9B41099900016E0FFA3E090005F
:060B6C0038CFF0A3EFF00A
:010B72002260
:0813310090000CEFF0A3EDF0B9
:10133900A3120CCB0000000190000DE0FF14F0EFA8
:101349006020A3E0F8A3E0F9A3E0FAA3E0FB900092
:101359000CE0FFE4FCFDFE120BA290000E120CBF84
:1013690080D690000EE0FCA3E0FDA3E0FEA3E0FF21
:011379002251
:0E0E7700900000EEF0A3EFF0A3ECF0A3EDF07E
:100E8500E490000BF0900004A3A3E0FEA3E0FFE4D0
:100E9500FCFD900004120CBFE4900009F0900008DE
:100EA500E0FFA3E0FEC39F4003020F57C3EF9E146C
:100EB500FD7F0A121331A804A905AA06AB07900005
:100EC50004E0FCA3E0FDA3E0FEA3E0FF120C2DE48B
:100ED5007B0AFAF9F8120C2D90000AEBF0A3E070EA
:100EE5003B900008E014FFA3E0FEC39F502EA3E053
:100EF5007024EE75F008A4FF900001E02FFF90002C
:100F050000E035F0FE900002E0FCA3E0FDE4900077
:100F150011F07B20803090000B7401F0900009E007
:100F250075F008A4FF900001E02FFF900000E03568
:100F3500F0FE900002E0FCA3E0FD90000AE0243002
:100F4500FBE4900011F01209DB900009E004F002C7
:020F55000EA2EA
:010F57002277
:1011B500900000EEF0A3EFF0A3ECF0A3EDF0A3EAAE
:0411C500F0A3EBF0B8
:1011C900E4900007F0900006E0F9A3E0FFC399500E
:1011D9005CC3E99F14FD7F0A121331A804A905AA6B
:1011E90006AB07900004E0FEA3E0FFE4FCFD120C4F
:1011F9002DE47B0AFAF9F8120C2DAF03900008EFE1
:10120900F0900007E075F008A4FF900001E02FFFBF
:10121900900000E035F0FE900002E0FCA3E0FDEB59
:0D12290024301209D5900007E004F08098F1
:011236002295
:10100200900000EEF0A3EFF0A3ECF0A3EDF0A3EB61
:10101200F0A3EAF0A3E9F0900004E0FBA3E0FAA356
:10102200E0F9120B736079D3900001E09410900004
:1010320000E094034012E4F0A3F0900003E02410D7
:10104200F0900002E03400F0D3900003E094D090DE
:101052000002E094014011E4900000F0A3F0A3F03C
:10106200A3F0FF7EF8121237900000E0FEA3E0FF2B
:10107200A3E0FCA3E0FDA3E0FBA3E0FAA3E0F912E6
:101082000B731209D5900001E02408F0900000E0F3
:101092003400F0900005E475F001120B8C02101977
:0110A200222B
:10141400E4FDFCC3ED9FEE6480F8EC648098501505
:10142400E4FBFA0BBB00010ABA03F8BBE8F50DBDF7
:0514340000010C80DE48
:011439002290
:1000030000000000000000000000000000000000ED
:100013000000000808080808080800001818000075
:1000230000486C24120000000000000000000000E3
:100033000000002424247F1212127F1212120000E7
:100043000000081C2A2A0A0C1828282A2A1C080837
:1000530000000022251515152A5854545422000077
:100063000000000C1212120A76252911916E00006D
:10007300000606040300000000000000000000006A
:10008300004020101008080808080810102040003D
:1000930000020408081010101010100808040200D1
:1000A3000000000008086B1C1C6B0808000000001F
:1000B30000000000080808087F080808080000007E
:1000C300000000000000000000000000060604031A
:1000D3000000000000000000FE000000000000001F
:1000E3000000000000000000000000000606000001
:1000F3000000804040202010100808040402020081
:1001030000000018244242424242424224180000A6
:10011300000000080E08080808080808083E000048
:100123000000003C4242422020100804427E0000AE
:100133000000003C4242201820404042221C0000A4
:10014300000000203028242422227E202078000072
:100153000000007E0202021A26404042221C0000D8
:10016300000000382402021A2642424224180000EA
:100173000000007E2222101008080808080800006A
:100183000000003C4242422418244242423C000008
:10019300000000182442424264584040241C0000DE
:1001A30000000000000018180000000018180000EC
:1001B3000000000000000008000000000008080420
:1001C3000000004020100804020408102040000032
:1001D3000000000000007F0000007F00000000001E
:1001E3000000000204081020402010080402000050
:1001F3000000003C42424640201010001818000046
:100203000000001C225A555555552D42221C000052
:100213000000000808181414243C224242E700009E
:100223000000001F2222221E22424242221F0000FF
:100233000000007C4242010101010142221C000036
:100243000000001F2242424242424242221F00005B
:100253000000003F4212121E12120242423F0000EF
:100263000000003F4212121E121202020207000097
:100273000000003C2222010101712122221C000006
:10028300000000E7424242427E42424242E700000F
:100293000000003E0808080808080808083E000097
:1002A3000000007C10101010101010101010110F0F
:1002B3000000007722120A0E0A121222227700008F
:1002C300000000070202020202020202427F000053
:1002D30000000077363636362A2A2A2A2A6B00008F
:1002E300000000E346464A4A525252626247000007
:1002F3000000001C2241414141414141221C0000B8
:100303000000003F424242423E0202020207000056
:100313000000001C2241414141414D53321C600009
:100323000000003F4242423E1212222242C7000016
:100333000000007C4242020418204042423E00007A
:100343000000007F4908080808080808081C000086
:10035300000000E74242424242424242423C000025
:10036300000000E742422224241414180808000065
:100373000000006B494949495555362222220000A5
:10038300000000E7422424181818242442E7000040
:10039300000000772222141408080808081C000033
:1003A3000000007E2120101008040442423F000098
:1003B30000780808080808080808080808087800EA
:1003C3000000020204040808081010202020404006
:1003D300001E1010101010101010101010101E001E
:1003E300003844000000000000000000000000008E
:1003F300000000000000000000000000000000FFFB
:1004030000060800000000000000000000000000DB
:10041300000000000000003C4278444242FC00001F
:10042300000000030202021A26424242261A00007A
:1004330000000000000000384402020244380000BB
:1004430000000060404040784442424264D80000CB
:10045300000000000000003C427E0202423C00001B
:10046300000000F08808087E08080808083E00001D
:10047300000000000000007C22221C023C42423C9F
:10048300000000030202023A4642424242E70000F1
:100493000000000C0C00000E08080808083E0000CD
:1004A3000000003030000038202020202020221EB1
:1004B3000000000302020272120A161222770000E1
:1004C3000000000E0808080808080808083E000095
:1004D300000000000000007F9292929292B7000009
:1004E300000000000000003B4642424242E7000099
:1004F300000000000000003C42424242423C000037
:10050300000000000000001B26424242221E020798
:10051300000000000000007844424242447840E07A
:1005230000000000000000774C040404041F0000D6
:10053300000000000000007C42023C40423E0000FC
:10054300000000000008083E080808080830000002
:1005530000000000000000634242424262DC0000EF
:1005630000000000000000E74224241408080000F3
:1005730000000000000000EB49495555222200000D
:10058300000000000000007624181818246E0000F4
:1005930000000000000000E74224241418080807A4
:1005A300000000000000007E22100808447E0000C6
:1005B30000C0202020202010202020202020C00048
:1005C3001010101010101010101010101010101028
:1005D30000060808080808100808080808080600A4
:1005E3000C32C20000000000000000000000000008
:1010AF000213E5E493A3F8E493A34003F68001F25F
:1010BF0008DFF48029E493A3F85407240CC8C33342
:1010CF00C4540F4420C8834004F456800146F6DF11
:1010DF00E4800B01020408102040809013B4E47EDA
:1010EF00019360BCA3FF543F30E509541FFEE49306
:1010FF00A360010ECF54C025E060A840B8E493A3CD
:10110F00FAE493A3F8E493A3C8C582C8CAC583CAF7
:10111F00F0A3C8C582C8CAC583CADFE9DEE780BEAF
:0113E4000008
:100B7300BB010689828A83E0225002E722BBFE0280
:090B8300E32289828A83E49322B3
:100B8C00C5F0F8A3E028F0C5F0F8E58215827002F4
:060B9C001583E038F02291
:100BA200E88FF0A4CC8BF0A42CFCE98EF0A42CFCF2
:100BB2008AF0EDA42CFCEA8EF0A4CDA8F08BF0A470
:100BC2002DCC3825F0FDE98FF0A42CCD35F0FCEBCF
:100BD2008EF0A4FEA9F0EB8FF0A4CFC5F02ECD3994
:0F0BE200FEE43CFCEAA42DCE35F0FDE43CFC2201
:100BF10075F008758200EF2FFFEE33FECD33CDCCBB
:100C010033CCC58233C5829BED9AEC99E58298403D
:100C11000CF582EE9BFEED9AFDEC99FC0FD5F0D61A
:100C2100E4CEFBE4CDFAE4CCF9A88222B800C1B944
:100C31000059BA002DEC8BF084CFCECDFCE5F0CB82
:100C4100F97818EF2FFFEE33FEED33FDEC33FCEBBB
:100C510033FB10D703994004EB99FB0FD8E5E4F976
:100C6100FA227818EF2FFFEE33FEED33FDEC33FC63
:100C7100C933C910D7059BE99A4007EC9BFCE99A57
:100C8100F90FD8E0E4C9FAE4CCFB2275F010EF2F9C
:100C9100FFEE33FEED33FDCC33CCC833C810D7079C
:100CA1009BEC9AE899400AED9BFDEC9AFCE899F8D7
:0E0CB1000FD5F0DAE4CDFBE4CCFAE4C8F9226A
:0C0CBF00ECF0A3EDF0A3EEF0A3EFF022A8
:100CCB00A8828583F0D083D082120CE2120CE21240
:100CDB000CE2120CE2E473E493A3C583C5F0C58365
:100CEB00C8C582C8F0A3C583C5F0C583C8C582C873
:010CFB0022D6
:00000001FF
